S00F0000446973706C61792E737265633F
S113000020C027C026C025C024C023C022C021C0D0
S113001020C01FC01EC01DC01CC01BC01AC03F068C
S11300205B4F666D7D077F6F777C395E79713D76B6
S1130030061F763815543F7367506D783E1C2A7638
S11300406E5B11241FBECFE5D2E0DEBFCDBF0FD063
S1130050A2C2D6CF82E087B984E886B90895369AD9
S11300603699FECF84B125B190E0922B0895CF93B9
S1130070DF9300D000D01F92CDB7DEB7CE0101963A
S1130080A7D06FE0CE01019635D1E4DFE8DF9B8392
S11300908A83E5DF9D838C838A819B812C813D81CA
S11300A0821B930B181619068CF38C819D812A816F
S11300B03B81821B930B1816190644F32EC08A81C8
S11300C09B819195819591099B838A836A817B8128
S11300D0072E000C880B990B45D120E030E040E05E
S11300E051E4A4D10CD17B836A83CE01019666D0FE
S11300F04A815B81052E000C660B770B01E023E03F
S1130100CE01019690D02FEF81EE94E021508040F3
S11301109040E1F700C00000B9CF2C813D818A8175
S11301209B81820F931F9B838A838A819B8199235E
S11301300CF4019695958795805E91409B838A8304
S11301408A819B81992314F6BACFC29AC19A00007E
S1130150C19800000895C2980000C29AC198000096
S1130160C19A089598E0C29880FF02C0C19A01C064
S1130170C1980000C29A000086959150A1F7C298D8
S1130180C1980000C29A00000895CF93C82FDDDF04
S11301908C2FE8DFE0DFCF910895CF93DF93D82F42
S11301A0C62F84E4F2DFD1DF8D2F806CDBDF8C2F50
S11301B0D9DFD1DF0000DF91CF910895CF93C0E064
S11301C060E08C2FEADFCF5FC430D1F7CF91089580
S11301D0CF93DF93EC01188287B3866087BBC29A02
S11301E080E4D3DF8FE8D1DFCE01E8DFDF91CF9168
S11301F00895FC01862F208130E002C035952795B3
S11302006A95E2F720FD02C090E001C090E8642FF7
S1130210692BC3DF08954F70E42FF0E0E25EFF4FD7
S11302204491E7DF08954F925F926F927F928F928D
S11302309F92AF92BF92CF92DF92EF92FF920F9371
S11302401F93CF93DF935C016A017B01C22F0111DD
S11302501DC04A30510561057105B0F09A01AB012A
S1130260D0E00F2EFAE04F2E512C612C712CF02D82
S1130270CA01B901A30192016CD1DF5F2A303105B3
S113028041055105A8F701C0D0E0CD0F0F2EFAE0CB
S11302904F2E512C612C712CF02D88248A948C0EB5
S11302A0C701B601A301920154D1922E032F142F3A
S11302B0D52F462F6C2FC501AEDFC92CD02EE12ED1
S11302C0FD2EC114D104E104F10419F0C82DCF3F6F
S11302D021F7DF91CF911F910F91FF90EF90DF9065
S11302E0CF90BF90AF909F908F907F906F905F90D2
S11302F04F900895862F8770886847DF089504D04B
S11303006894B1118DC0089570D088F09F5790F013
S1130310B92F9927B751A0F0D1F0660F771F881F26
S1130320991F1AF0BA95C9F712C0B13081F077D08D
S1130330B1E0089574C0672F782F8827B85F39F02B
S1130340B93FCCF3869577956795B395D9F73EF485
S113035090958095709561957F4F8F4F9F4F08952D
S1130360E89409C097FB3EF490958095709561954B
S11303707F4F8F4F9F4F9923A9F0F92F96E9BB2701
S11303809395F695879577956795B795F111F8CF7D
S1130390FAF4BB0F11F460FF1BC06F5F7F4F8F4FE8
S11303A09F4F16C0882311F096E911C0772321F0DE
S11303B09EE8872F762F05C0662371F096E8862F76
S11303C070E060E02AF09A95660F771F881FDAF7CD
S11303D0880F9695879597F9089557FD9058440F7F
S11303E0551F59F05F3F71F04795880F97FB991F90
S11303F061F09F3F79F0879508951216130614064D
S1130400551FF2CF4695F1DF08C0161617061806D9
S1130410991FF1CF86957105610508940895E894B4
S1130420BB2766277727CB0197F908950AD080C0A8
S113043071D028F076D018F0952309F062C067C017
S1130440EFCFCBDFA8F39923D9F35523C9F3950F45
S113045050E0551FAA27EE27FF27BB270024089446
S1130460679520F4E20FF31FB41F0A1E220F331FF7
S1130470441FAA1F6695A9F7779530F4F30FB41FAC
S11304800A1E121E08F46395330F441FAA1F221F6D
S1130490769599F7879520F4B40F0A1E121E631FF0
S11304A0440FAA1F221F331F8695A9F7862F712D8B
S11304B0602D11249F5750408AF0E1F088234AF0C0
S11304C0EE0FFF1FBB1F661F771F881F9150504000
S11304D0A9F79E3F510570F014C0A2CF5F3FECF323
S11304E0983EDCF3869577956795B795F795E795EC
S11304F09F5FC1F7FE2B880F911D9695879597F9FD
S1130500089597F99F6780E870E060E008959FEF91
S113051080EC089500240A94161617061806090696
S1130520089500240A941216130614060506089565
S1130530092E0394000C11F4882352F0BB0F40F4ED
S1130540BF2B11F460FF04C06F5F7F4F8F4F9F4F2D
S11305500895A1E21A2EAA1BBB1BFD010DC0AA1F00
S1130560BB1FEE1FFF1FA217B307E407F50720F018
S1130570A21BB30BE40BF50B661F771F881F991F93
S11305801A9469F760957095809590959B01AC01DC
S10D0590BD01CF010895F894FFCFD8
S9030000FC
