S00F0000446973706C61792E737265633F
S113000020C027C026C025C024C023C022C021C0D0
S113001020C01FC01EC01DC01CC01BC01AC03F068C
S11300205B4F666D7D077F6F777C395E79713D76B6
S1130030061F763815543F7367506D783E1C2A7638
S11300406E5B11241FBECFE5D2E0DEBFCDBF0FD063
S11300502BC1D6CF82E087B984E886B90895369A51
S11300603699FECF84B125B190E0922B0895CF93B9
S1130070DF931F92CDB7DEB7CE0101965CD068E066
S1130080CE010196EAD0E6DFEADFAC01990F660BF8
S1130090770B01E023E0CE01019678D02FEF89E6BB
S11300A098E1215080409040E1F700C00000ECCF7F
S11300B0C19AC09A0000C09800000895C198000039
S11300C0C19AC0980000C09A089598E0C19880FF32
S11300D002C0C09A01C0C0980000C19A0000869571
S11300E09150A1F7C198C0980000C19A00000895EA
S11300F0CF93C82FDDDF8C2FE8DFE0DFCF910895A9
S1130100CF93DF93D82FC62F84E4F2DFD1DF8D2F76
S1130110806CDBDF8C2FD9DFD1DF0000DF91CF9142
S11301200895CF93C0E060E08C2FEADFCF5FC43046
S1130130D1F7CF910895CF93DF93EC01188287B361
S1130140836087BBC19A80E4D3DF8FE8D1DFCE011F
S1130150E8DFDF91CF910895FC01862F208130E004
S113016002C0359527956A95E2F720FD02C090E01C
S113017001C090E8642F692BC3DF08954F70E42F0A
S1130180F0E0E25EFF4F4491E7DF08954F925F9203
S11301906F927F928F929F92AF92BF92CF92DF9293
S11301A0EF92FF920F931F93CF93DF935C016A0149
S11301B07B01C22F01111DC04A3051056105710533
S11301C0B0F09A01AB01D0E00F2EFAE04F2E512C83
S11301D0612C712CF02DCA01B901A301920142D006
S11301E0DF5F2A30310541055105A8F701C0D0E091
S11301F0CD0F0F2EFAE04F2E512C612C712CF02DC7
S113020088248A948C0EC701B601A30192012AD0D6
S1130210922E032F142FD52F462F6C2FC501AEDF3E
S1130220C92CD02EE12EFD2EC114D104E104F10419
S113023019F0C82DCF3F21F7DF91CF911F910F9176
S1130240FF90EF90DF90CF90BF90AF909F908F90F2
S11302507F906F905F904F900895862F8770886885
S113026047DF0895A1E21A2EAA1BBB1BFD010DC096
S1130270AA1FBB1FEE1FFF1FA217B307E407F50752
S113028020F0A21BB30BE40BF50B661F771F881F2E
S1130290991F1A9469F760957095809590959B01C4
S10F02A0AC01BD01CF010895F894FFCF1C
S9030000FC
